{
  "contractName": "Deals",
  "abi": [
    {
      "constant": false,
      "inputs": [
        {
          "name": "_newlib",
          "type": "address"
        }
      ],
      "name": "changeLibAddress",
      "outputs": [
        {
          "name": "success",
          "type": "bool"
        }
      ],
      "payable": false,
      "stateMutability": "nonpayable",
      "type": "function"
    },
    {
      "inputs": [
        {
          "name": "_libra",
          "type": "address"
        },
        {
          "name": "token",
          "type": "address"
        }
      ],
      "payable": false,
      "stateMutability": "nonpayable",
      "type": "constructor"
    }
  ],
  "bytecode": "0x6060604052341561000f57600080fd5b60405160408061017e8339810160405280805190602001909190805190602001909190505060008060008060405180807f4465616c734c696228545343546f6b656e205f746b6e29000000000000000000815250601701905060405180910390209350859250600191506014820260020290508360005280380381816008396008820160008082600888f4505050505050505060ce806100b06000396000f300606060405260043610603f576000357c0100000000000000000000000000000000000000000000000000000000900463ffffffff1680631e1d696a146044575b600080fd5b3415604e57600080fd5b6078600480803573ffffffffffffffffffffffffffffffffffffffff169060200190919050506092565b604051808215151515815260200191505060405180910390f35b60008082905060019150509190505600a165627a7a7230582071660a640b8e2b59955b1c57ad54288edaee1e658e699c5da8dc2981679a883f0029",
  "source": "pragma solidity ^0.4.15;\n\nimport \"./TSCToken.sol\";\n\ncontract Deals{\n\n  function Deals(address _libra, TSCToken token){\n    //convert to low-level signature\n    bytes4 signature = bytes4(sha3(\"DealsLib(TSCToken _tkn)\"));\n    //address of library contract\n    address libra = _libra;\n\n    // Compute the size of the call data\n    //address has 20(!) bytes\n    //but we need only last argument\n    //thats why we take only one arg.\n    // should it multiple 2x?\n    uint argarraysize = 1;\n    //address has 20(!) bytes (on ethscan 40 symbols)\n    // should it multiple 2x?\n    uint argsize = 2 * (argarraysize * 20);\n\n    assembly{\n      //add the signature to begin of memory\n      signature 0x0 mstore\n\n      //call data is at the end of code\n\n      let valuepart:= argsize codesize sub\n      //copy agrsize bytes from end of codesize to 0x8\n      argsize valuepart 0x8 codecopy\n      // where the messge ends\n      let msgend:= 0x8 argsize add\n      //delegate call to library\n      // 0x0 means we dont need output\n      // 0x8 means where we store beigin of argument\n      // end is on the 0x3 + argumentsize\n      0x0 0x0 msgend 0x8 libra delegatecall\n    }\n  }\n\n\n  function changeLibAddress(address _newlib) returns (bool success){\n    address libra = _newlib;\n    return true;\n  }\n\n  }\n",
  "sourcePath": "/home/quasisamurai/Рабочий стол/github/tsc-new-way/contracts/Deals.sol",
  "compiler": {
    "name": "solc",
    "version": "0.4.18+commit.9cf6e910.Emscripten.clang"
  },
  "schemaVersion": "1.0.1",
  "updatedAt": "2017-11-15T17:50:00.244Z"
}