{
  "contractName": "DealsLib",
  "abi": [
    {
      "constant": true,
      "inputs": [
        {
          "name": "addr",
          "type": "address"
        }
      ],
      "name": "GetDeals",
      "outputs": [
        {
          "name": "",
          "type": "uint256[]"
        }
      ],
      "payable": false,
      "stateMutability": "view",
      "type": "function"
    },
    {
      "constant": false,
      "inputs": [
        {
          "name": "_hub",
          "type": "address"
        },
        {
          "name": "_client",
          "type": "address"
        },
        {
          "name": "_specHash",
          "type": "uint256"
        },
        {
          "name": "_price",
          "type": "uint256"
        },
        {
          "name": "_workTime",
          "type": "uint256"
        }
      ],
      "name": "OpenDeal",
      "outputs": [],
      "payable": false,
      "stateMutability": "nonpayable",
      "type": "function"
    },
    {
      "constant": true,
      "inputs": [
        {
          "name": "dealIndex",
          "type": "uint256"
        }
      ],
      "name": "GetDealInfo",
      "outputs": [
        {
          "name": "specHach",
          "type": "uint256"
        },
        {
          "name": "client",
          "type": "address"
        },
        {
          "name": "hub",
          "type": "address"
        },
        {
          "name": "price",
          "type": "uint256"
        },
        {
          "name": "startTime",
          "type": "uint256"
        },
        {
          "name": "workTime",
          "type": "uint256"
        },
        {
          "name": "endTIme",
          "type": "uint256"
        },
        {
          "name": "status",
          "type": "uint256"
        }
      ],
      "payable": false,
      "stateMutability": "view",
      "type": "function"
    },
    {
      "constant": false,
      "inputs": [
        {
          "name": "id",
          "type": "uint256"
        }
      ],
      "name": "AcceptDeal",
      "outputs": [],
      "payable": false,
      "stateMutability": "nonpayable",
      "type": "function"
    },
    {
      "constant": false,
      "inputs": [
        {
          "name": "id",
          "type": "uint256"
        }
      ],
      "name": "CloseDeal",
      "outputs": [],
      "payable": false,
      "stateMutability": "nonpayable",
      "type": "function"
    },
    {
      "constant": true,
      "inputs": [],
      "name": "GetDealsAmount",
      "outputs": [
        {
          "name": "",
          "type": "uint256"
        }
      ],
      "payable": false,
      "stateMutability": "view",
      "type": "function"
    },
    {
      "inputs": [
        {
          "name": "_tkn",
          "type": "address"
        }
      ],
      "payable": false,
      "stateMutability": "nonpayable",
      "type": "constructor"
    },
    {
      "anonymous": false,
      "inputs": [
        {
          "indexed": false,
          "name": "hub",
          "type": "address"
        },
        {
          "indexed": false,
          "name": "client",
          "type": "address"
        },
        {
          "indexed": false,
          "name": "index",
          "type": "uint256"
        }
      ],
      "name": "DealOpened",
      "type": "event"
    },
    {
      "anonymous": false,
      "inputs": [
        {
          "indexed": false,
          "name": "hub",
          "type": "address"
        },
        {
          "indexed": false,
          "name": "client",
          "type": "address"
        },
        {
          "indexed": false,
          "name": "index",
          "type": "uint256"
        }
      ],
      "name": "DealAccepted",
      "type": "event"
    },
    {
      "anonymous": false,
      "inputs": [
        {
          "indexed": false,
          "name": "hub",
          "type": "address"
        },
        {
          "indexed": false,
          "name": "client",
          "type": "address"
        },
        {
          "indexed": false,
          "name": "index",
          "type": "uint256"
        }
      ],
      "name": "DealClosed",
      "type": "event"
    }
  ],
  "bytecode": "0x60606040526000600155341561001457600080fd5b60405160208061161683398101604052808051906020019091905050806000806101000a81548173ffffffffffffffffffffffffffffffffffffffff021916908373ffffffffffffffffffffffffffffffffffffffff16021790555050611596806100806000396000f300606060405260043610610078576000357c0100000000000000000000000000000000000000000000000000000000900463ffffffff168063087ca1d81461007d5780633b24475f1461010b5780635ad5f6ae1461017e5780635be20de21461023e578063ca6ad1bf14610261578063e45ea8d314610284575b600080fd5b341561008857600080fd5b6100b4600480803573ffffffffffffffffffffffffffffffffffffffff169060200190919050506102ad565b6040518080602001828103825283818151815260200191508051906020019060200280838360005b838110156100f75780820151818401526020810190506100dc565b505050509050019250505060405180910390f35b341561011657600080fd5b61017c600480803573ffffffffffffffffffffffffffffffffffffffff1690602001909190803573ffffffffffffffffffffffffffffffffffffffff1690602001909190803590602001909190803590602001909190803590602001909190505061034a565b005b341561018957600080fd5b61019f600480803590602001909190505061077c565b604051808981526020018873ffffffffffffffffffffffffffffffffffffffff1673ffffffffffffffffffffffffffffffffffffffff1681526020018773ffffffffffffffffffffffffffffffffffffffff1673ffffffffffffffffffffffffffffffffffffffff1681526020018681526020018581526020018481526020018381526020018281526020019850505050505050505060405180910390f35b341561024957600080fd5b61025f600480803590602001909190505061083b565b005b341561026c57600080fd5b6102826004808035906020019091905050610a87565b005b341561028f57600080fd5b6102976114c4565b6040518082815260200191505060405180910390f35b6102b5611505565b600460008373ffffffffffffffffffffffffffffffffffffffff1673ffffffffffffffffffffffffffffffffffffffff16815260200190815260200160002080548060200260200160405190810160405280929190818152602001828054801561033e57602002820191906000526020600020905b81548152602001906001019080831161032a575b50505050509050919050565b8373ffffffffffffffffffffffffffffffffffffffff163373ffffffffffffffffffffffffffffffffffffffff1614151561038457600080fd5b6001805401600181905550610100604051908101604052808481526020018573ffffffffffffffffffffffffffffffffffffffff1681526020018673ffffffffffffffffffffffffffffffffffffffff16815260200183815260200160008152602001828152602001600081526020016000600281111561040157fe5b8152506002600060015481526020019081526020016000206000820151816000015560208201518160010160006101000a81548173ffffffffffffffffffffffffffffffffffffffff021916908373ffffffffffffffffffffffffffffffffffffffff16021790555060408201518160020160006101000a81548173ffffffffffffffffffffffffffffffffffffffff021916908373ffffffffffffffffffffffffffffffffffffffff160217905550606082015181600301556080820151816004015560a0820151816005015560c0820151816006015560e08201518160070160006101000a81548160ff021916908360028111156104fd57fe5b02179055509050506000809054906101000a900473ffffffffffffffffffffffffffffffffffffffff1673ffffffffffffffffffffffffffffffffffffffff166323b872dd8530856000604051602001526040518463ffffffff167c0100000000000000000000000000000000000000000000000000000000028152600401808473ffffffffffffffffffffffffffffffffffffffff1673ffffffffffffffffffffffffffffffffffffffff1681526020018373ffffffffffffffffffffffffffffffffffffffff1673ffffffffffffffffffffffffffffffffffffffff1681526020018281526020019350505050602060405180830381600087803b151561060557600080fd5b6102c65a03f1151561061657600080fd5b50505060405180519050151561062b57600080fd5b61065382600360006001548152602001908152602001600020546114ce90919063ffffffff16565b60036000600154815260200190815260200160002081905550600460008573ffffffffffffffffffffffffffffffffffffffff1673ffffffffffffffffffffffffffffffffffffffff16815260200190815260200160002080548060010182816106bd9190611519565b91600052602060002090016000600154909190915055507f873cb35202fef184c9f8ee23c04e36dc38f3e26fb285224ca574a837be9768488585600154604051808473ffffffffffffffffffffffffffffffffffffffff1673ffffffffffffffffffffffffffffffffffffffff1681526020018373ffffffffffffffffffffffffffffffffffffffff1673ffffffffffffffffffffffffffffffffffffffff168152602001828152602001935050505060405180910390a15050505050565b6000806000806000806000806000600260008b8152602001908152602001600020905080600001548160010160009054906101000a900473ffffffffffffffffffffffffffffffffffffffff168260020160009054906101000a900473ffffffffffffffffffffffffffffffffffffffff1683600301548460040154856005015486600601548760070160009054906101000a900460ff16600281111561081f57fe5b9850985098509850985098509850985050919395975091939597565b6002600082815260200190815260200160002060020160009054906101000a900473ffffffffffffffffffffffffffffffffffffffff1673ffffffffffffffffffffffffffffffffffffffff163373ffffffffffffffffffffffffffffffffffffffff161415156108ab57600080fd5b600060028111156108b857fe5b6002600083815260200190815260200160002060070160009054906101000a900460ff1660028111156108e757fe5b1415156108f357600080fd5b60016002600083815260200190815260200160002060070160006101000a81548160ff0219169083600281111561092657fe5b02179055504260026000838152602001908152602001600020600401819055506002600082815260200190815260200160002060050154420160026000838152602001908152602001600020600601819055507f3a38edea6028913403c74ce8433c90eca94f4ca074d318d8cb77be5290ba4f156002600083815260200190815260200160002060020160009054906101000a900473ffffffffffffffffffffffffffffffffffffffff166002600084815260200190815260200160002060010160009054906101000a900473ffffffffffffffffffffffffffffffffffffffff1683604051808473ffffffffffffffffffffffffffffffffffffffff1673ffffffffffffffffffffffffffffffffffffffff1681526020018373ffffffffffffffffffffffffffffffffffffffff1673ffffffffffffffffffffffffffffffffffffffff168152602001828152602001935050505060405180910390a150565b60006002600083815260200190815260200160002060010160009054906101000a900473ffffffffffffffffffffffffffffffffffffffff1673ffffffffffffffffffffffffffffffffffffffff163373ffffffffffffffffffffffffffffffffffffffff16141515610af957600080fd5b60016002811115610b0657fe5b6002600084815260200190815260200160002060070160009054906101000a900460ff166002811115610b3557fe5b14156111a0576002600083815260200190815260200160002060060154421115610cef576000809054906101000a900473ffffffffffffffffffffffffffffffffffffffff1673ffffffffffffffffffffffffffffffffffffffff1663a9059cbb6002600085815260200190815260200160002060020160009054906101000a900473ffffffffffffffffffffffffffffffffffffffff1660026000868152602001908152602001600020600301546000604051602001526040518363ffffffff167c0100000000000000000000000000000000000000000000000000000000028152600401808373ffffffffffffffffffffffffffffffffffffffff1673ffffffffffffffffffffffffffffffffffffffff16815260200182815260200192505050602060405180830381600087803b1515610c7157600080fd5b6102c65a03f11515610c8257600080fd5b505050604051805190501515610c9757600080fd5b610cd3600260008481526020019081526020016000206003015460036000858152602001908152602001600020546114ec90919063ffffffff16565b6003600084815260200190815260200160002081905550611059565b60026000838152602001908152602001600020600501546002600084815260200190815260200160002060030154811515610d2657fe5b04600260008481526020019081526020016000206004015442030290506000809054906101000a900473ffffffffffffffffffffffffffffffffffffffff1673ffffffffffffffffffffffffffffffffffffffff1663a9059cbb6002600085815260200190815260200160002060020160009054906101000a900473ffffffffffffffffffffffffffffffffffffffff16836000604051602001526040518363ffffffff167c0100000000000000000000000000000000000000000000000000000000028152600401808373ffffffffffffffffffffffffffffffffffffffff1673ffffffffffffffffffffffffffffffffffffffff16815260200182815260200192505050602060405180830381600087803b1515610e4557600080fd5b6102c65a03f11515610e5657600080fd5b505050604051805190501515610e6b57600080fd5b610e918160036000858152602001908152602001600020546114ec90919063ffffffff16565b60036000848152602001908152602001600020819055506000809054906101000a900473ffffffffffffffffffffffffffffffffffffffff1673ffffffffffffffffffffffffffffffffffffffff1663a9059cbb6002600085815260200190815260200160002060010160009054906101000a900473ffffffffffffffffffffffffffffffffffffffff16836002600087815260200190815260200160002060030154036000604051602001526040518363ffffffff167c0100000000000000000000000000000000000000000000000000000000028152600401808373ffffffffffffffffffffffffffffffffffffffff1673ffffffffffffffffffffffffffffffffffffffff16815260200182815260200192505050602060405180830381600087803b1515610fc257600080fd5b6102c65a03f11515610fd357600080fd5b505050604051805190501515610fe857600080fd5b6110268160026000858152602001908152602001600020600301540360036000858152602001908152602001600020546114ec90919063ffffffff16565b60036000848152602001908152602001600020819055504260026000848152602001908152602001600020600601819055505b600280600084815260200190815260200160002060070160006101000a81548160ff0219169083600281111561108b57fe5b02179055507f72615f99a62a6cc2f8452d5c0c9cbc5683995297e1d988f09bb1471d4eefb8906002600084815260200190815260200160002060020160009054906101000a900473ffffffffffffffffffffffffffffffffffffffff166002600085815260200190815260200160002060010160009054906101000a900473ffffffffffffffffffffffffffffffffffffffff1684604051808473ffffffffffffffffffffffffffffffffffffffff1673ffffffffffffffffffffffffffffffffffffffff1681526020018373ffffffffffffffffffffffffffffffffffffffff1673ffffffffffffffffffffffffffffffffffffffff168152602001828152602001935050505060405180910390a16114c0565b600060028111156111ad57fe5b6002600084815260200190815260200160002060070160009054906101000a900460ff1660028111156111dc57fe5b14156114ba576000809054906101000a900473ffffffffffffffffffffffffffffffffffffffff1673ffffffffffffffffffffffffffffffffffffffff1663a9059cbb6002600085815260200190815260200160002060010160009054906101000a900473ffffffffffffffffffffffffffffffffffffffff1660026000868152602001908152602001600020600301546000604051602001526040518363ffffffff167c0100000000000000000000000000000000000000000000000000000000028152600401808373ffffffffffffffffffffffffffffffffffffffff1673ffffffffffffffffffffffffffffffffffffffff16815260200182815260200192505050602060405180830381600087803b15156112fa57600080fd5b6102c65a03f1151561130b57600080fd5b50505060405180519050151561132057600080fd5b61135c600260008481526020019081526020016000206003015460036000858152602001908152602001600020546114ec90919063ffffffff16565b6003600084815260200190815260200160002081905550600280600084815260200190815260200160002060070160006101000a81548160ff021916908360028111156113a557fe5b02179055507f72615f99a62a6cc2f8452d5c0c9cbc5683995297e1d988f09bb1471d4eefb8906002600084815260200190815260200160002060020160009054906101000a900473ffffffffffffffffffffffffffffffffffffffff166002600085815260200190815260200160002060010160009054906101000a900473ffffffffffffffffffffffffffffffffffffffff1684604051808473ffffffffffffffffffffffffffffffffffffffff1673ffffffffffffffffffffffffffffffffffffffff1681526020018373ffffffffffffffffffffffffffffffffffffffff1673ffffffffffffffffffffffffffffffffffffffff168152602001828152602001935050505060405180910390a16114bf565b600080fd5b5b5050565b6000600154905090565b60008082840190508381101515156114e257fe5b8091505092915050565b60008282111515156114fa57fe5b818303905092915050565b602060405190810160405280600081525090565b8154818355818115116115405781836000526020600020918201910161153f9190611545565b5b505050565b61156791905b8082111561156357600081600090555060010161154b565b5090565b905600a165627a7a723058204003e9860ee5afe0df9c3b67e1504af8d73fc6ffda106ff0db2af2840aaa86450029",
  "source": "pragma solidity ^0.4.15;\n\n\nimport \"./TSCToken.sol\";\n\n\ncontract DealsLib {\n\n    using SafeMath for uint256;\n\n    TSCToken token;\n\n    enum Status{\n    Pending,\n    Accepted,\n    Closed\n    }\n\n    struct Deal {\n    uint256 specificationHash;\n    address client;\n    address hub;\n    uint256 price;\n    uint startTime;\n    uint workTime;\n    uint endTime;\n    Status status;\n    }\n\n    event DealOpened(address hub, address client, uint index);\n\n    event DealAccepted(address hub, address client, uint index);\n\n    event DealClosed(address hub, address client, uint index);\n\n    uint dealAmount = 0;\n\n    mapping (uint => Deal) deals;\n\n    mapping (uint => uint256) blockedBalance;\n\n    mapping (address => uint[]) dealsIndex;\n\n    function DealsLib(TSCToken _tkn){\n        token = _tkn;\n    }\n\n    function OpenDeal(address _hub, address _client, uint256 _specHash, uint256 _price, uint _workTime){\n        require(msg.sender == _client);\n\n        dealAmount = dealAmount + 1;\n\n        // startTime - 0, setting in AcceptDeal()\n        // workTime - in seconds\n        // endTime - 0, setting in AcceptDeal()\n        deals[dealAmount] = Deal(_specHash, _client, _hub, _price, 0, _workTime, 0, Status.Pending);\n\n        require(token.transferFrom(_client, this, _price));\n        blockedBalance[dealAmount] = blockedBalance[dealAmount].add(_price);\n\n        dealsIndex[_client].push(dealAmount);\n\n        DealOpened(_hub, _client, dealAmount);\n    }\n\n    function AcceptDeal(uint id) {\n        require(msg.sender == deals[id].hub);\n        require(deals[id].status == Status.Pending);\n\n        deals[id].status = Status.Accepted;\n        deals[id].startTime = now;\n        deals[id].endTime = now + deals[id].workTime;\n\n        DealAccepted(deals[id].hub, deals[id].client, id);\n    }\n\n    function CloseDeal(uint id) {\n        require(msg.sender == deals[id].client);\n        if (deals[id].status == Status.Accepted) {\n            // Closing deal\n            if (now > deals[id].endTime) {\n                // After endTime\n                require(token.transfer(deals[id].hub, deals[id].price));\n                blockedBalance[id] = blockedBalance[id].sub(deals[id].price);\n            } else {\n                // Before endTime\n                var paidAmount = (now - deals[id].startTime) * (deals[id].price / deals[id].workTime);\n                require(token.transfer(deals[id].hub, paidAmount));\n                blockedBalance[id] = blockedBalance[id].sub(paidAmount);\n                require(token.transfer(deals[id].client, deals[id].price - paidAmount));\n                blockedBalance[id] = blockedBalance[id].sub(deals[id].price - paidAmount);\n                deals[id].endTime = now;\n            }\n            deals[id].status = Status.Closed;\n            DealClosed(deals[id].hub, deals[id].client, id);\n        }else if (deals[id].status == Status.Pending) {\n            // Canceling deal\n            require(token.transfer(deals[id].client, deals[id].price));\n            blockedBalance[id] = blockedBalance[id].sub(deals[id].price);\n\n            deals[id].status = Status.Closed;\n\n            DealClosed(deals[id].hub, deals[id].client, id);\n        } else {\n            revert();\n        }\n    }\n\n    function GetDealInfo(uint dealIndex) constant returns (uint specHach, address client, address hub, uint price, uint startTime, uint workTime, uint endTIme, uint status){\n        Deal storage deal = deals[dealIndex];\n        return (deal.specificationHash, deal.client, deal.hub, deal.price, deal.startTime, deal.workTime, deal.endTime, uint(deal.status));\n    }\n\n    function GetDeals(address addr) constant returns (uint[]){\n        return dealsIndex[addr];\n    }\n\n    function GetDealsAmount() constant returns (uint){\n        return dealAmount;\n    }\n\n}\n",
  "sourcePath": "/home/quasisamurai/Рабочий стол/github/The-Factory/contracts/DealsLib.sol",
  "compiler": {
    "name": "solc",
    "version": "0.4.18+commit.9cf6e910.Emscripten.clang"
  },
  "schemaVersion": "1.0.1",
  "updatedAt": "2017-11-22T12:11:38.576Z"
}